:03000000020102F8
:03000B0002014AA5
:1001000080FE7CF290031E75F000C280C29075895B
:100110000175A88275080075090175810931793169
:10012000793179317931793179318F318F318F313D
:100130008F318F318F31793179317931793179312D
:1001400079758CF5758A43D28C22C28C1581A88171
:1001500086300581A88186311581A8817665058163
:10016000A8817601320581A881A6300581A881A6E3
:100170003190031E7CF20201A4C280C290000000F4
:1001800000000000D280007C36DCFE00000022C2AD
:1001900080C2907C32DCFE00000000D280007C0631
:1001A000DCFE00220000000000C280E5F093F52094
:1001B000A3E5F093F521A3E5F093F522A3E5F093F1
:1001C000F523A3D280E5F093F524A3E5F093F5257C
:1001D00000D290C290A3E5F093F526A3E5F093F545
:1001E00027A3E5F093F528A3E5F093F529A300E50F
:1001F00020F59003F59003F59003F59003F5900337
:10020000F59003F59003F590E521F59003F5900343
:10021000F59003F59003F59003F59003F59003F541
:1002200090E522F59003F59003F59003F59003F522
:100230009003F59003F59003F590E523F59003F511
:100240009003F59003F59003F59003F59003F59076
:1002500003F590E524F59003F59003F59003F590F0
:1002600003F59003F59003F59003F590E525F590DF
:1002700003F59003F59003F59003F59003F59003D3
:10028000F59003F590E526F59003F59003F59003BE
:10029000F59003F59003F59003F59003F590E527AD
:1002A000F59003F59003F59003F59003F59003F5B1
:1002B0009003F59003F590E528F59003F59003F58C
:1002C0009003F59003F59003F59003F59003F590F6
:1002D000E529F59003F59003F59003F59003F5906B
:1002E00003F59003F59003F590C290000000000024
:1002F0000000000000000000000000DC02211DC220
:1003000090D2800201A4882389248A25F879647A0E
:1003100064DAFED9FAD8F6A823A924AA2522000077
:1003200000000000000000000000000000000000CD
:1003300000000000000000000000000000000000BD
:1003400000000000000000000000000000000000AD
:10035000000000000000000000000000000000009D
:10036000000000000000000000000000000000008D
:10037000000000000000000000000000000000007D
:10038000000000000000000000000000000000006D
:10039000000000000000000000000000000000005D
:1003A000000000000000000000000000000000004D
:1003B0000000000000000000000000000000C00F6E
:1003C0000000000000000000C00F0000000000005E
:1003D0000000C00F000000000000000060000000EE
:1003E00000000000000060000000000000000000AD
:1003F000600000000000000000003000000000006D
:10040000000000003000000000000000000030008C
:100410000000000000000000180000008002000042
:10042000000018000000800200000000180000001A
:10043000800200000000080000000007000000002B
:10044000080000000007000000000800000000078E
:10045000000000000800000000020000000008008A
:100460000000000200000000080000000002000080
:10047000000008E07DEFBD7A0000000008E07DEF9D
:10048000BD7A0000000008E07DEFBD7A00000000AA
:1004900018205529854A0000000018205529854A52
:1004A0000000000018205529854A00000000302077
:1004B000552FBD7A1E0000003020552FBD7A1E003A
:1004C00000003020552FBD7A1E000000602055210D
:1004D000A10A0000000060205521A10A00000000D0
:1004E00060205521A10A00000000C0EF55E1BD7A4F
:1004F00000000000C0EF55E1BD7A00000000C0EF31
:1005000055E1BD7A0000000000000001000000007D
:1005100000000000000100000000000000000001D9
:1005200000000000000000000001000000000000CA
:1005300000000001000000000000000000010000B9
:1005400000000000000000F807008000000000002C
:1005500000F8070080000000000000F8070080009D
:1005600000000000000800008000000000000008FB
:100570000000800000000000000800008000000073
:1005800000000008000080000000000000080000DB
:100590008000000000000008000080000000000053
:1005A000000800008000000000000008000080003B
:1005B00000000000000800008000000000000008AB
:1005C0000000800000000000000800008000000023
:1005D00000000008000080000000000000F897F70D
:1005E0009E000000000000F897F79E000000000049
:1005F00000F897F79E00000000000000949492001D
:100600000000000000009494920000000000000030
:1006100094949200000000000000949492780000EE
:100620000000000094949278000000000000949470
:1006300092780000000000009494920000000000F6
:100640000000949492000000000000009494920036
:1006500000000000000094979200000000000000DD
:100660009497920000000000000094979200000010
:10067000000000F81794BE010000000000F8179475
:10068000BE010000000000F81794BE010000000049
:100690000000000400000000000000000004000052
:1006A0000000000000000004000000000000000046
:1006B000800700000000000000008007000000002C
:1006C00000000000800700000000F80100000000AA
:1006D00000000000F8010000000000000000F80128
:1006E0000000000000000000080000000000000002
:1006F00000000800000000000000000008000000EA
:100700000000000000000400000080000000000065
:1007100004000000800000000000040000008000D1
:100720000000000004000000800000000000040041
:1007300000008000000000000400000080000000B5
:10074000000006000000E0030000000006000000BA
:10075000E0030000000006000000E00300000000CD
:100760000200000080000000000002000000800085
:100770000000000002000000800000000000C20332
:100780000000800000000000C203000080000000A4
:100790000000C203000080000000000002FAC2173F
:1007A00080800000000002FAC21780800000000074
:1007B00002FAC217808000000000028A5EF49EBC2C
:1007C00003000000028A5EF49EBC03000000028A5F
:1007D0005EF49EBC0300000006FAD21792A400004B
:1007E000000006FAD21792A40000000006FAD21701
:1007F00092A4000000000C09521092A40000000016
:100800000C09521092A4000000000C09521092A48E
:1008100000000000F8F8D217BEBC00000000F8F895
:10082000D217BEBC00000000F8F8D217BEBC000012
:1008300000000000000000000000000000000000B8
:1008400000000000000000000000000000000000A8
:100850000000000000000000000000000000000098
:100860000000000000000000000000000000000088
:100870000000000000000000000000000000000078
:100880000000000000000000000000000000000068
:100890000000000000000000000000000000000058
:1008A0000000000000000000000008000000000040
:1008B0000000000008000000000000000000080028
:1008C0000000000000000000080000000000000020
:1008D0000000080000000000000000000800000008
:1008E0000000000000000880070000000000000079
:1008F00008800700000000000000088007000000DA
:1009000000000000088004000000000000000880D3
:100910000400000000000000088004000000000047
:1009200000007885047800000000000078850478D5
:10093000000000000000788504780000000000003E
:100940004885044800000000000048850448000075
:1009500000000000488504480000000000004887AF
:10096000B77B0000000000004887B77B0000000054
:1009700000004887B77B0000000000007884940ADC
:100980000000000000007884940A000000000000CD
:100990007884940A0000000000000084947A00002B
:1009A000000000000084947A000000000000008431
:1009B000947A000000000000000700000000000022
:1009C0000000000700000000000000000007000019
:1009D0000000000000000000000000000000000017
:1009E0000000000000000000000000000000000007
:1009F00000000000000000102500000000000000C2
:100A0000001025000000000000000010250000007C
:100A10000000000000102100000000000000001095
:100A20002100000000000000001021000000000074
:100A300000000010F9000000000000000010F900A4
:100A40000000000000000010F9000000000000009D
:100A50000010210080080000000000102100800824
:100A6000000000000010210080080000000000F0DD
:100A7000A5F79D3B0000000000F0A5F79D3B00009E
:100A8000000000F0A5F79D3B000000000010255677
:100A9000952A0000000000102556952A000000004D
:100AA00000102556952A0000000000102553952AB5
:100AB0000000000000102553952A000000000010DF
:100AC0002553952A000000000010A557BD2A0000FC
:100AD00000000010A557BD2A000000000010A55717
:100AE000BD2A00000000000000000000000000001F
:100AF00000000000000000000000000000000000F6
:100B0000000000C0030000000000000000C003005F
:100B100000000000000000C0030000000000000012
:100B2000E063463E000000000000E063463E000037
:100B300000000000E063463E0000000000001022BC
:100B40006421000000000000102264210000000069
:100B50000000102264210000000000001022542137
:100B600000000000000010225421000000000000DE
:100B70001022542100000000000010224421000037
:100B8000000000001022442100000000000010229C
:100B90004421000000000000002344300000000059
:100BA0000000002344300000000000000023443017
:100BB000000000000000E023443E000000000000B0
:100BC000E023443E000000000000E023443E00001B
:100BD00000000000E06E46EE000000000000E06E45
:100BE00046EE000000000000E06E46EE000000004F
:100BF000000060D8438601000000000060D84386F2
:100C000001000000000060D84386010000000000E1
:100C100000000000000000000000000000000000D4
:100C200000000000000000000000000000000000C4
:100C300000000000000000000000000000000000B4
:100C400000000000000000000000000000000000A4
:100C50000000000000000000000000000000000094
:100C60000000000000000000000000000000000084
:100C70000000000000000000000000000000000074
:100C80000000000000000000000000000000000064
:020C9000000062
:00000001FF
