:03000000020108F2
:03000B000201618E
:1001000090A000E023F080F87CF290033575F000B9
:10011000741412031D90A0037482F090A000740167
:10012000F0C280C29075890175A8827508007509B2
:100130000175810931903190319031903190319039
:1001400031A631A631A631A631A631A63190319023
:100150003190319031903190758CF5758A43D28C05
:1001600022C28C1581A88186300581A8818631152F
:1001700081A881767C0581A8817601320581A881DC
:10018000A6300581A881A6319003357CF20201BB1F
:10019000C280C29000000000000000D280007C36C7
:1001A000DCFE00000022C280C2907C32DCFE000037
:1001B0000000D280007C06DCFE002200000000006F
:1001C000C280E5F093F520A3E5F093F521A3E5F0D7
:1001D00093F522A3E5F093F523A3D280E5F093F500
:1001E00024A3E5F093F52500D290C290A3E5F09307
:1001F000F526A3E5F093F527A3E5F093F528A3E50D
:10020000F093F529A300E520F59003F59003F59010
:1002100003F59003F59003F59003F59003F590E551
:1002200021F59003F59003F59003F59003F5900305
:10023000F59003F59003F590E522F59003F5900312
:10024000F59003F59003F59003F59003F59003F511
:1002500090E523F59003F59003F59003F59003F5F1
:100260009003F59003F59003F590E524F59003F5E0
:100270009003F59003F59003F59003F59003F59046
:1002800003F590E525F59003F59003F59003F590BF
:1002900003F59003F59003F59003F590E526F590AE
:1002A00003F59003F59003F59003F59003F59003A3
:1002B000F59003F590E527F59003F59003F590038D
:1002C000F59003F59003F59003F59003F590E5287C
:1002D000F59003F59003F59003F59003F59003F581
:1002E0009003F59003F590E529F59003F59003F55B
:1002F0009003F59003F59003F59003F59003F590C6
:10030000C29000000000000000000000000000009B
:100310000000DC022134C290D2800201BB88238914
:10032000248A25F879647A64DAFED9FAD8F6A82303
:10033000A924AA25220000000000000000000000FF
:1003400000000000000000000000000000000000AD
:10035000000000000000000000000000000000009D
:10036000000000000000000000000000000000008D
:10037000000000000000000000000000000000007D
:10038000000000000000000000000000000000006D
:10039000000000000000000000000000000000005D
:1003A000000000000000000000000000000000004D
:1003B000000000000000000000000000000000003D
:1003C000000000000000000000000000000000002D
:1003D0000000000000C00F0000000000000000C08E
:1003E0000F0000000000000000C00F00000000002F
:1003F000000000600000000000000000006000003D
:10040000000000000000006000000000000000008C
:10041000003000000000000000000030000000007C
:100420000000000000300000000000000000001884
:1004300000000080020000000018000000800200A0
:10044000000000180000008002000000000800000A
:100450000000070000000008000000000700000086
:100460000008000000000700000000080000000075
:100470000200000000080000000002000000000868
:1004800000000000020000000008E07DEFBD7A00DF
:1004900000000008E07DEFBD7A0000000008E07D6C
:1004A000EFBD7A0000000018205529854A000000A1
:1004B0000018205529854A0000000018205529857C
:1004C0004A000000003020552FBD7A1E0000003089
:1004D00020552FBD7A1E0000003020552FBD7A1EFA
:1004E00000000060205521A10A0000000060205596
:1004F00021A10A0000000060205521A10A0000008F
:1005000000C0EF55E1BD7A00000000C0EF55E1BD2D
:100510007A00000000C0EF55E1BD7A000000000045
:1005200000000100000000000000000001000000C9
:1005300000000000000001000000000000000000BA
:1005400001000000000000000000010000000000A9
:100550000000000001000000000000000000F8079B
:100560000080000000000000F8070080000000008C
:100570000000F80700800000000000000800008074
:1005800000000000000008000080000000000000E3
:10059000080000800000000000000800008000004B
:1005A00000000000080000800000000000000800BB
:1005B0000080000000000000080000800000000033
:1005C000000008000080000000000000080000801B
:1005D0000000000000000800008000000000000093
:1005E00008000080000000000000080000800000FB
:1005F00000000000F897F79E000000000000F89748
:10060000F79E000000000000F897F79E0000000031
:100610000000009494920000000000000094949266
:100620000000000000000094949200000000000010
:100630000094949278000000000000949492780056
:1006400000000000009494927800000000000094E4
:1006500094920000000000000094949200000000BA
:100660000000009494920000000000000094979213
:1006700000000000000000949792000000000000BD
:1006800000949792000000000000F81794BE01004B
:1006900000000000F81794BE010000000000F817E9
:1006A00094BE0100000000000000040000000000F3
:1006B0000000000004000000000000000000040032
:1006C00000000000000000800700000000000000A3
:1006D000008007000000000000000080070000000C
:1006E00000F8010000000000000000F80100000018
:1006F0000000000000F801000000000000000008F9
:1007000000000000000000000008000000000000E1
:1007100000000008000000000000000000040000CD
:1007200000800000000000040000008000000000C5
:1007300000040000008000000000000400000080B1
:100740000000000000040000008000000000000421
:1007500000000080000000000006000000E0030030
:1007600000000006000000E003000000000600009A
:1007700000E0030000000002000000800000000014
:100780000002000000800000000000020000008065
:100790000000000000C2030000800000000000C252
:1007A000030000800000000000C203000080000081
:1007B00000000002FAC21780800000000002FAC2A6
:1007C0001780800000000002FAC21780800000003D
:1007D00000028A5EF49EBC03000000028A5EF49E62
:1007E000BC03000000028A5EF49EBC030000000609
:1007F000FAD21792A40000000006FAD21792A400C1
:1008000000000006FAD21792A4000000000C095262
:100810001092A4000000000C09521092A4000000E5
:10082000000C09521092A400000000F8F8D217BE84
:10083000BC00000000F8F8D217BEBC00000000F8B1
:10084000F8D217BEBC00000000000000000000004D
:100850000000000000000000000000000000000098
:100860000000000000000000000000000000000088
:100870000000000000000000000000000000000078
:100880000000000000000000000000000000000068
:100890000000000000000000000000000000000058
:1008A0000000000000000000000000000000000048
:1008B0000000000000000000000000000000000038
:1008C0000008000000000000000000080000000018
:1008D0000000000000080000000000000000000808
:1008E0000000000000000000000800000000000000
:1008F0000000000800000000000000000008800761
:100900000000000000000008800700000000000058
:1009100000088007000000000000000880040000BC
:100920000000000000088004000000000000000833
:1009300080040000000000000078850478000000BA
:10094000000000788504780000000000007885042D
:100950007800000000000048850448000000000006
:100960000048850448000000000000488504480055
:1009700000000000004887B77B000000000000482E
:1009800087B77B0000000000004887B77B000000AD
:100990000000007884940A0000000000007884942D
:1009A0000A0000000000007884940A0000000000A3
:1009B000000084947A0000000000000084947A0013
:1009C00000000000000084947A0000000000000095
:1009D0000700000000000000000007000000000009
:1009E0000000000007000000000000000000000000
:1009F00000000000000000000000000000000000F7
:100A000000000000000000000000000000001025B1
:100A100000000000000000001025000000000000A1
:100A20000000102500000000000000001021000060
:100A30000000000000001021000000000000000085
:100A40001021000000000000000010F9000000006C
:100A50000000000010F9000000000000000010F984
:100A600000000000000000001021008008000000CD
:100A7000000010210080080000000000102100800C
:100A8000080000000000F0A5F79D3B0000000000FA
:100A9000F0A5F79D3B0000000000F0A5F79D3B008E
:100AA00000000000102556952A00000000001025C7
:100AB00056952A0000000000102556952A000000D7
:100AC0000000102553952A000000000010255395C2
:100AD0002A0000000000102553952A0000000000A5
:100AE00010A557BD2A000000000010A557BD2A0020
:100AF0000000000010A557BD2A0000000000000003
:100B000000000000000000000000000000000000E5
:100B100000000000000000000000C0030000000012
:100B200000000000C0030000000000000000C0033F
:100B300000000000000000E063463E0000000000EE
:100B400000E063463E000000000000E063463E0017
:100B500000000000001022642100000000000010CE
:100B60002264210000000000001022642100000027
:100B70000000001022542100000000000010225448
:100B8000210000000000001022542100000000009D
:100B90000010224421000000000000102244210027
:100BA00000000000001022442100000000000000AE
:100BB0002344300000000000000023443000000007
:100BC00000000000234430000000000000E0234447
:100BD0003E000000000000E023443E000000000052
:100BE00000E023443E000000000000E06E46EE00FE
:100BF0000000000000E06E46EE000000000000E093
:100C00006E46EE00000000000060D8438601000040
:100C100000000060D8438601000000000060D84357
:100C2000860100000000000000000000000000003D
:100C300000000000000000000000000000000000B4
:100C400000000000000000000000000000000000A4
:100C50000000000000000000000000000000000094
:100C60000000000000000000000000000000000084
:100C70000000000000000000000000000000000074
:100C80000000000000000000000000000000000064
:100C90000000000000000000000000000000000054
:090CA0000000000000000000004B
:00000001FF
